:020000040800F2
:10000000003000201D020008AD060008BB060008F5
:10001000C1060008C7060008CD0600080000000061
:10002000000000000000000000000000E10B0008DC
:10003000D306000800000000F10D0008590E00086A
:100040006D0200086D0200086D0200086D020008D4
:100050006D0200086D0200086D0200086D020008C4
:100060006D0200086D0200086D0200086D020008B4
:100070006D0200086D0200086D0200086D020008A4
:100080006D0200086D0200086D0200086D02000894
:100090006D0200086D0200086D0200086D02000884
:1000A0006D0200086D0200086D0200086D02000874
:1000B000E10600086D020008000000006D02000863
:1000C0006D02000800000000000000006D02000842
:1000D000000000006D0200086D0200086D020008BB
:1000E0006D0200086D020008000000000000000022
:1000F0000000000000000000000000000000000000
:1001000000000000000000000000000000000000EF
:1001100000000000000000006D0200086D020008F1
:1001200000000000000000000000000000000000CF
:1001300000000000000000000000000000000000BF
:100140006D0200086D0200080000000000000000C1
:10015000000000000000000000000000000000009F
:10016000000000000000000000000000000000008F
:10017000000000000000000000000000000000007F
:08018000000000006D02000800
:100190000348044B834202D0034B03B11847704716
:1001A0004C0400204C0400200000000005480649D3
:1001B000091A891001EBD171491002D0034B03B128
:1001C000184770474C0400204C0400200000000039
:1001D00010B5064C237843B9FFF7DAFF044B13B18F
:1001E0000448AFF300800123237010BD4C040020AD
:1001F00000000000AC3E000808B5054B1BB10549E6
:100200000548AFF30080BDE80840FFF7CFBF00BF4F
:100210000000000050040020AC3E0008DFF834D09D
:10022000002103E00C4B5B58435004310B480C4B4E
:1002300042189A42F6D30B4A02E0002342F8043BEC
:10024000094B9A42F9D300F055FA03F049FD00F04A
:100250000FF8FEE700300020243F000800000020D7
:100260004C0400204C04002094120020FEE7000003
:1002700080B582B002AF01F07FFB00F027F800F0FC
:100280009BF800F069F80B4B0193022300930023C5
:1002900080220949094800F0D9FE094B0193022345
:1002A0000093002380220749074800F0CFFE01F0A9
:1002B0002DF8FEE768040020C43E00084D04000845
:1002C0006C040020CC3E00087504000880B590B096
:1002D00000AF07F1180328220021184603F024FD7F
:1002E0003B1D00221A605A609A60DA601A6101238D
:1002F000BB614FF4A023FB6100233B620123BB627F
:1003000002237B634FF48033BB634FF4E013FB6342
:1003100007F11803184601F0E3FD0346002B01D056
:1003200000F0C7F80F237B600223BB600023FB6053
:100330004FF480633B6100237B613B1D0221184623
:1003400002F0BCFC0346002B01D000F0B2F800BF65
:100350004037BD4680BD000080B500AF144B154A44
:100360001A60134B4FF416525A60114B00229A60D8
:100370000F4B0022DA600E4B00221A610C4B0C224C
:100380005A610B4B00229A61094B0022DA61084B3B
:1003900000221A62064B00225A62054803F026F931
:1003A0000346002B01D000F084F800BF80BD00BFE1
:1003B000BC1100200044004080B588B000AF07F1B8
:1003C0000C0300221A605A609A60DA601A611D4BB1
:1003D0005B691C4A43F4800353611A4B5B6903F465
:1003E0008003BB60BB68174B5B69164A43F400335C
:1003F0005361144B5B6903F400337B607B68114BE2
:100400005B69104A43F4802353610E4B5B6903F42C
:1004100080233B603B68002208210B4801F036FD39
:100420000823FB6001233B6100237B610023BB6148
:1004300007F10C031946044801F0B2FB00BF203756
:10044000BD4680BD001002400004004880B582B067
:1004500000AF786064230D220449054803F017F9C2
:100460004FF47A7000F01EFFF4E700BF0000002098
:10047000BC11002080B582B000AF7860082104482C
:1004800001F01CFD4FF4FA7000F00CFFF6E700BF1E
:100490000004004880B582B000AF78607B681B68BC
:1004A000B3F1804F01D101F07DFA00BF0837BD469E
:1004B00080BD80B400AF00BFBD465DF8047B7047CF
:1004C00080B582B000AF114B9B69104A43F0010325
:1004D00093610E4B9B6903F001037B607B680B4BC0
:1004E000DB690A4A43F08053D361084BDB6903F0B0
:1004F00080533B603B6800220F216FF0010001F048
:1005000025FB00BF0837BD4680BD00BF001002407C
:1005100080B58CB000AF786007F11C0300221A6030
:100520005A609A60DA601A617B681B68304A9342AD
:100530002AD1304B9B692F4A43F4804393612D4B62
:100540009B6903F48043BB61BB692A4B5B69294A01
:1005500043F400335361274B5B6903F400337B6141
:100560007B694FF4C063FB6102233B6200237B6223
:100570000323BB620723FB6207F11C0319464FF0FC
:10058000904001F00DFB2EE07B681B681A4A9342F5
:1005900029D1184BDB69174A43F40033D361154B5B
:1005A000DB6903F400333B613B69124B5B69114A21
:1005B00043F4003353610F4B5B6903F40033FB607A
:1005C000FB6848F20403FB6102233B6200237B6269
:1005D0000323BB620723FB6207F11C0319464FF09C
:1005E000904001F0DDFA00BF3037BD4680BD00BF4E
:1005F00000380140001002400044004080B58CB03B
:1006000000AF78600023FB620023BB6200227968A0
:100610001C2001F09BFA1C2001F0B4FA204BDB698E
:100620001F4A43F00103D3611D4BDB6903F0010353
:10063000FB60FB6807F1100207F11403114618462E
:1006400002F072FD02F02CFD03465B00FB62FB6AC8
:10065000144AA2FB03239B0C013BBB62124B4FF0DD
:1006600080421A60104B40F2E732DA600E4ABB6AF1
:1006700053600D4B00221A610B4B00229A600A480E
:1006800002F084FD0346002B04D1074802F0B3FDBD
:10069000034600E0012318463037BD4680BD00BF49
:1006A0000010024083DE1B432C12002080B400AFF8
:1006B00000BFBD465DF8047B704780B400AFFEE725
:1006C00080B400AFFEE780B400AFFEE780B400AFB7
:1006D000FEE780B400AF00BFBD465DF8047B704705
:1006E00080B500AF024802F0A1FD00BF80BD00BF91
:1006F0002C12002080B400AF1F4BD3F888301E4A64
:1007000043F47003C2F888301C4B1B681B4A43F04B
:1007100001031360194B5A681849194B13404B6079
:10072000164B1B68154A23F0847323F4803313603F
:10073000124B1B68114A23F4802313600F4B5B6834
:100740000E4A23F4FE0353600C4BDB6A0B4A23F082
:100750000F03D362094B1A6B08490A4B13400B6312
:10076000064B00229A60044B4FF000629A6000BF73
:10077000BD465DF8047B704700ED00E000100240CC
:100780000CC07FF8CCFC00FF80B58AB000AF786069
:100790000023FB6100F000FE574B1B68002B01D1CA
:1007A00000F00CF9554B1A687B681340002B40F0A1
:1007B0008C807B68002B1CD008227B6813447B60F4
:1007C0007B6803F00703002B13D07B6823F007033B
:1007D00008337B607B6803F00703002B09D04FF0E0
:1007E000500383F31188BFF36F8FBFF34F8F7B618B
:1007F000FEE77B68002B68D0414B1B687A689A4201
:1008000063D8404B3B623F4B1B687B6204E07B6AD2
:100810003B627B6A1B687B627B6A5B687A689A4290
:1008200003D97B6A1B68002BF1D1334B1B687A6AB2
:100830009A424AD03B6A1B6808221344FB617B6AD8
:100840001A683B6A1A607B6A5A687B68D21A082366
:100850005B009A421ED97A6A7B681344BB61BB690C
:1008600003F00703002B09D04FF0500383F31188E6
:10087000BFF36F8FBFF34F8F3B61FEE77B6A5A6810
:100880007B68D21ABB695A607B6A7A685A60B86919
:1008900000F0F6F81A4B1A687B6A5B68D31A184A9C
:1008A0001360174B1A68184B1B689A4203D2144BFB
:1008B0001B68154A13607B6A5A68104B1B681A4301
:1008C0007B6A5A607B6A00221A6000F073FDFB6944
:1008D00003F00703002B09D04FF0500383F3118876
:1008E000BFF36F8FBFF34F8FFB60FEE7FB691846C6
:1008F0002837BD4680BD00BF78100020841000203E
:100900007C100020701000208010002080B586B080
:1009100000AF78607B687B617B68002B46D0082342
:100920005B427A6913447B617B693B613B695A682E
:10093000204B1B681340002B09D14FF0500383F369
:100940001188BFF36F8FBFF34F8FFB60FEE73B69EA
:100950001B68002B09D04FF0500383F31188BFF3BD
:100960006F8FBFF34F8FBB60FEE73B695A68114B37
:100970001B681340002B19D03B691B68002B15D155
:100980003B695A680B4B1B68DB431A403B695A6052
:1009900000F002FD3B695A68074B1B681344064A86
:1009A0001360386900F06CF800F004FD00BF1837E0
:1009B000BD4680BD841000207C10002080B485B02E
:1009C00000AF4FF44063BB60274BFB60FB6803F054
:1009D0000703002B0CD0FB680733FB60FB6823F098
:1009E0000703FB60BA68FB68D31A1F4A1344BB6055
:1009F000FB687B601D4A7B6813601C4B00225A60B9
:100A00007B68BA681344FB600822FB689B1AFB6092
:100A1000FB6823F00703FB60FB68154A1360144B67
:100A20001B6800225A60124B1B6800221A607B6808
:100A30003B603B68FA68D21A3B685A600C4B1A68F4
:100A40003B681A603B685B680A4A13603B685B68F6
:100A5000094A1360094B4FF000421A6000BF143777
:100A6000BD465DF8047B70477004002070100020C4
:100A700078100020801000207C10002084100020BE
:100A800080B485B000AF7860284BFB6002E0FB6863
:100A90001B68FB60FB681B687A689A42F7D8FB68A2
:100AA000BB60FB685B68BA6813447A689A4208D1F5
:100AB000FB685A687B685B681A44FB685A60FB688D
:100AC0007B607B68BB607B685B68BA681A44FB68C4
:100AD0001B689A4218D1FB681A68154B1B689A422A
:100AE0000DD07B685A68FB681B685B681A447B689A
:100AF0005A60FB681B681A687B681A6008E00C4B38
:100B00001A687B681A6003E0FB681A687B681A60E1
:100B1000FA687B689A4202D0FB687A681A6000BF64
:100B20001437BD465DF8047B704700BF701000208D
:100B30007810002080B485B000AFF860B9607A60AA
:100B4000FB68043BFB60FB684FF080721A60FB6837
:100B5000043BFB60BB6823F00102FB681A60FB6882
:100B6000043BFB600C4AFB681A60FB68143BFB60AB
:100B70007A68FB681A60FB68043BFB60FB686FF0F7
:100B800002021A60FB68203BFB60FB6818461437C2
:100B9000BD465DF8047B70479D0B000880B483B0B0
:100BA00000AF0C4B1B68B3F1FF3F09D04FF050036F
:100BB00083F31188BFF36F8FBFF34F8F7B60FEE726
:100BC0004FF0500383F31188BFF36F8FBFF34F8F44
:100BD0003B60FEE714000020000000000000000061
:100BE000074B19680868B0E8F04F80F30988BFF335
:100BF0006F8F4FF0000080F311887047AFF30080D3
:100C00009010002000BF00BF06480068006880F315
:100C1000088862B661B6BFF34F8FBFF36F8F00DFF6
:100C200000BF00BF08ED00E080B586B000AF3B4BD1
:100C30001B683B4A934209D14FF0500383F311885C
:100C4000BFF36F8FBFF34F8F3B61FEE7334B1B68E2
:100C5000344A934209D14FF0500383F31188BFF314
:100C60006F8FBFF34F8FFB60FEE72F4B7B617B697C
:100C70001B78DBB2BB607B69FF221A707B691B7833
:100C8000DBB2FB71FB79DBB203F05003DAB2274B26
:100C90001A70274B07221A6009E0254B1B68013B9D
:100CA000234A1360FB79DBB25B00DBB2FB71FB799B
:100CB000DBB203F08003802BEFD01D4B1B681B02BF
:100CC0001B4A13601A4B1B6803F4E063184A136055
:100CD000BB68DAB27B691A70164B1B68154A43F47D
:100CE00070031360134B1B68124A43F07043136088
:100CF00000F0D2F8104B00221A6000F0E9F80F4B18
:100D00001B680E4A43F040431360FFF77DFFFFF777
:100D100045FF002318461837BD4680BD00ED00E0B2
:100D200071C20F4170C20F4100E400E08810002042
:100D30008C10002020ED00E01400002034EF00E0D3
:100D400080B483B000AF4FF0500383F31188BFF33A
:100D50006F8FBFF34F8F7B600E4B1B6801330D4AC3
:100D600013600C4B1B68012B0ED10B4B1B68DBB2C5
:100D7000002B09D04FF0500383F31188BFF36F8F1E
:100D8000BFF34F8F3B60FEE700BF0C37BD465DF8F9
:100D9000047B70471400002004ED00E080B483B0B1
:100DA00000AF114B1B68002B09D14FF0500383F3A8
:100DB0001188BFF36F8FBFF34F8F7B60FEE70A4B45
:100DC0001B68013B084A1360074B1B68002B04D1CA
:100DD00000233B603B6883F3118800BF0C37BD469E
:100DE0005DF8047B704700BF140000200000000085
:100DF000EFF30980BFF36F8F154B1A681EF0100FC9
:100E000008BF20ED108A20E9F04F10604DF8043D36
:100E10004FF0500080F31188BFF34F8FBFF36F8FF7
:100E200000F020FC4FF0000080F3118808BC196826
:100E30000868B0E8F04F1EF0100F08BFB0EC108A41
:100E400080F30988BFF36F8F704700BFAFF3008056
:100E50009010002000BF00BF80B582B000AF4FF0FF
:100E6000500383F31188BFF36F8FBFF34F8F7B6005
:100E700000F03CFB0346002B03D0064B4FF08052A2
:100E80001A6000233B603B6883F3118800BF08377A
:100E9000BD4680BD04ED00E080B400AF084B1B6888
:100EA000084AA2FB03239B09074A013B1360074B37
:100EB00007221A6000BFBD465DF8047B704700BF83
:100EC00010000020D34D621014E000E010E000E0BC
:100ED000DFF80C00016841F470010160704700BF49
:100EE00088ED00E080B483B000AF78607B6803F1E8
:100EF00008027B685A607B684FF0FF329A607B681B
:100F000003F108027B68DA607B6803F108027B6802
:100F10001A617B6800221A6000BF0C37BD465DF87D
:100F2000047B704780B483B000AF78607B68002298
:100F30001A6100BF0C37BD465DF8047B704780B472
:100F400085B000AF786039607B685B68FB603B68A8
:100F5000FA685A60FB689A683B689A60FB689B680D
:100F60003A685A60FB683A689A603B687A681A6126
:100F70007B681B685A1C7B681A6000BF1437BD462B
:100F80005DF8047B704780B485B000AF786039604D
:100F90003B681B68BB60BB68B3F1FF3F03D17B6854
:100FA0001B69FB600CE07B680833FB6002E0FB68B8
:100FB0005B68FB60FB685B681B68BA689A42F6D2A4
:100FC000FB685A683B685A603B685B683A689A609D
:100FD0003B68FA689A60FB683A685A603B687A68CE
:100FE0001A617B681B685A1C7B681A6000BF143743
:100FF000BD465DF8047B704780B485B000AF786073
:101000007B681B69FB607B685B687A6892689A60A2
:101010007B689B687A6852685A60FB685B687A688C
:101020009A4203D17B689A68FB685A607B68002209
:101030001A61FB681B685A1EFB681A60FB681B6814
:1010400018461437BD465DF8047B704780B58CB0F8
:1010500004AFF860B9603B601346FB80FB889B00DF
:101060001846FFF791FB78617B69002B0ED0542066
:10107000FFF78AFBF861FB69002B03D0FB697A69F3
:101080001A6305E07869FFF741FC01E00023FB618A
:10109000FB69002B13D0FA8800230393FB690293AA
:1010A000FB6A0193BB6A00933B68B968F86800F07B
:1010B0000EF8F86900F08CF80123BB6102E04FF0F4
:1010C000FF33BB61BB6918462037BD4680BD80B584
:1010D00088B000AFF860B9607A603B603B6B1A6B18
:1010E0007B6803F18043013B9B001344BB61BB69F8
:1010F00023F00703BB61BB6903F00703002B09D092
:101100004FF0500383F31188BFF36F8FBFF34F8FFE
:101110007B61FEE70023FB6114E0BA68FB691344BE
:1011200093F900103A6BFB69134434330A461A7082
:10113000BA68FB69134493F90030002B06D0FB69B1
:101140000133FB61FB690F2BE7D900E000BF3B6B6C
:10115000002283F84320BB6A062B01D90623BB6219
:101160003B6BBA6ADA623B6BBA6A5A643B6B002229
:101170009A643B6B04331846FFF7D4FE3B6B18337D
:101180001846FFF7CFFE3B6B3A6B1A61BB6AC3F19F
:1011900007023B6B9A613B6B3A6B5A623B6B0022D6
:1011A000DA643B6B002283F850203A68F968B8692A
:1011B000FFF7C0FC02463B6B1A60FB6A002B02D0B3
:1011C000FB6A3A6B1A6000BF2037BD4680BD000045
:1011D00080B582B000AF7860FFF7B2FD2A4B1B6884
:1011E0000133294A1360294B1B68002B09D1274A78
:1011F0007B681360244B1B68012B10D100F0A4FA0C
:101200000DE0234B1B68002B09D1204B1B68DA6AC9
:101210007B68DB6A9A4202D81C4A7B6813601D4BCC
:101220001B6801331B4A13607B68DB6A01229A400A
:10123000194B1B681343184A13607B68DA6A13461C
:101240009B0013449B00154A1A447B6804331946DB
:101250001046FFF774FEFFF7A1FD0D4B1B68002B36
:101260000ED00A4B1B68DA6A7B68DB6A9A4207D2A7
:101270000B4B4FF080521A60BFF34F8FBFF36F8F4D
:1012800000BF0837BD4680BD90110020901000209F
:101290009C110020AC110020981100209410002017
:1012A00004ED00E080B584B000AF78600023FB60FF
:1012B0007B68002B16D0134B1B68002B09D04FF016
:1012C000500383F31188BFF36F8FBFF34F8FBB6061
:1012D000FEE700F061F80021786800F0E7FA00F01E
:1012E00069F8F860FB68002B07D1074B4FF080527C
:1012F0001A60BFF34F8FBFF36F8F00BF1037BD462B
:1013000080BD00BFB811002004ED00E080B586B0BC
:1013100002AF1B4B01930023009300238022194945
:101320001948FFF793FEF860FB68012B15D14FF0C9
:10133000500383F31188BFF36F8FBFF34F8FBB60F0
:10134000124B4FF0FF321A60114B01221A60114B01
:1013500000221A60FFF768FC0DE0FB68B3F1FF3F65
:1013600009D14FF0500383F31188BFF36F8FBFF3A0
:101370004F8F7B60FEE700BF1037BD4680BD00BFCA
:10138000B4110020D43E000819170008B011002045
:101390009C1100209411002080B400AF044B1B6806
:1013A0000133034A136000BFBD465DF8047B7047FC
:1013B000B811002080B584B000AF0023FB6000238B
:1013C000BB60414B1B68002B09D14FF0500383F3E6
:1013D0001188BFF36F8FBFF34F8F3B60FEE7FFF7BE
:1013E000AFFC394B1B68013B374A1360364B1B6817
:1013F000002B61D1354B1B68002B5DD02EE0344BA8
:10140000DB68DB68FB60FB6818331846FFF7F4FD08
:10141000FB6804331846FFF7EFFDFB68DB6A012227
:101420009A402C4B1B6813432A4A1360FB68DA6A04
:1014300013469B0013449B00274A1A44FB6804335D
:1014400019461046FFF77BFDFB68DA6A234B1B68E1
:10145000DB6A9A4202D3224B01221A601C4B1B68A2
:10146000002BCCD1FB68002B01D000F0F9F91D4B0B
:101470001B687B607B68002B10D000F037F80346B8
:10148000002B02D0164B01221A607B68013B7B6067
:101490007B68002BF1D1134B00221A60104B1B68A4
:1014A000002B09D00123BB600F4B4FF080521A6014
:1014B000BFF34F8FBFF36F8FFFF770FCBB68184609
:1014C0001037BD4680BD00BFB8110020901100202C
:1014D000501100209811002094100020901000203E
:1014E000A4110020A011002004ED00E080B586B01A
:1014F00000AF00237B61504B1B68002B40F08C80B9
:101500004E4B1B6801333B614C4A3B6913603B699E
:10151000002B1FD14A4B1B681B68002B09D04FF0D2
:10152000500383F31188BFF36F8FBFF34F8F3B607E
:10153000FEE7434B1B68FB60424B1B68404A13604D
:10154000404AFB681360404B1B6801333E4A1360FE
:1015500000F086F93D4B1B683A699A424DD3384BEF
:101560001B681B68002B01D1012300E00023002B26
:1015700004D0364B4FF0FF321A603EE0304B1B6810
:10158000DB68DB68BB60BB685B687B603A697B6873
:101590009A4203D22D4A7B6813602EE0BB68043365
:1015A0001846FFF729FDBB689B6A002B04D0BB6877
:1015B00018331846FFF720FDBB68DB6A01229A400A
:1015C000234B1B681343224A1360BB68DA6A134635
:1015D0009B0013449B001F4A1A44BB6804331946FE
:1015E0001046FFF7ACFCBB68DA6A1B4B1B68DB6A72
:1015F0009A42B4D301237B61B1E7174B1B68DA6AC7
:10160000144913469B0013449B000B441B68012B99
:1016100007D901237B6104E0104B1B6801330F4A9B
:1016200013600F4B1B68002B01D001237B617B698A
:1016300018461837BD4680BDB8110020941100200F
:10164000481100204C110020A8110020B0110020EA
:10165000981100209410002090100020A01100206C
:10166000A411002080B487B000AF264B1B68002B6C
:1016700003D0254B01221A603EE0234B00221A6062
:10168000224B1B68FB60FB68B3FA83F3FB72FB7AA7
:10169000C3F11F037B611E497A6913469B00134403
:1016A0009B000B441B68002B09D14FF0500383F3C0
:1016B0001188BFF36F8FBFF34F8F7B60FEE77A69AE
:1016C00013469B0013449B00114A13443B613B6942
:1016D0005B685A683B695A603B695A683B690833E2
:1016E0009A4204D13B695B685A683B695A603B691E
:1016F0005B68DB68074A136000BF1C37BD465DF8B6
:10170000047B7047B8110020A4110020981100201C
:10171000941000209010002080B582B000AF786057
:1017200000F052F8064B1B68012BF9D9054B4FF01E
:1017300080521A60BFF34F8FBFF36F8FF0E700BF87
:101740009410002004ED00E080B582B000AF0023CB
:101750007B600CE07A6813469B0013449B00124A9E
:1017600013441846FFF7BEFB7B6801337B607B6840
:10177000062BEFD90D48FFF7B5FB0D48FFF7B2FB7D
:101780000C48FFF7AFFB0C48FFF7ACFB0B48FFF72B
:10179000A9FB0B4B054A1A600A4B054A1A6000BFA9
:1017A0000837BD4680BD00BF9410002020110020E6
:1017B0003411002050110020641100207C11002001
:1017C000481100204C11002080B582B000AF28E005
:1017D000FFF7E2FD174B1B68002B0CBF0123002312
:1017E000DBB27B60FFF7E6FD7B68002B19D1FFF7CA
:1017F000A7FA104BDB68DB683B603B680433184694
:10180000FFF7FAFB0C4B1B68013B0B4A13600B4BB9
:101810001B68013B094A1360FFF7C0FA386800F003
:101820000FF8064B1B68002BD2D100BF0837BD460E
:1018300080BD00BF641100209011002078110020AD
:1018400080B582B000AF78607B681B6B1846FFF7ED
:101850005DF87868FFF75AF800BF0837BD4680BDCD
:1018600080B483B000AF0F4B1B681B68002B01D105
:10187000012300E00023002B04D00B4B4FF0FF327C
:101880001A6008E0074B1B68DB68DB687B607B68DD
:101890005B68054A136000BF0C37BD465DF8047BEA
:1018A000704700BF48110020B011002080B584B0FF
:1018B00000AF78603960294B1B68FB60284B1B68C0
:1018C00004331846FFF798FB0346002B0BD1244B3B
:1018D0001B68DB6A012202FA03F3DA43214B1B681F
:1018E0001340204A13607B68B3F1FF3F0AD13B6885
:1018F000002B07D01A4B1B68043319461A48FFF710
:101900001EFB26E0FA687B681344BB60144B1B681F
:10191000BA685A60BA68FB689A4209D2134B1A68CF
:101920000F4B1B68043319461046FFF72CFB10E0E1
:101930000F4B1A680A4B1B68043319461046FFF711
:1019400022FB0C4B1B68BA689A4202D2094ABB6858
:10195000136000BF1037BD4680BD00BF941100204A
:1019600090100020981100207C1100204C110020C4
:1019700048110020B011002080B500AF084B1B6853
:10198000074A43F010031360032000F0D4F800204E
:10199000FEF734FEFEF794FD0023184680BD00BF1D
:1019A0000020024080B400AF064B1B781A46064B5D
:1019B0001B681344044A136000BFBD465DF8047BF6
:1019C000704700BF180000206C12002080B400AFE8
:1019D000034B1B681846BD465DF8047B704700BF8B
:1019E0006C12002080B485B000AF78607B6803F093
:1019F0000703FB600C4BDB68BB60BA684FF6FF0364
:101A00001340BB60FB681A02BB68134343F0BF631B
:101A100043F40033BB60044ABB68D36000BF143793
:101A2000BD465DF8047B704700ED00E080B400AF78
:101A3000044BDB681B0A03F007031846BD465DF83C
:101A4000047B704700ED00E080B483B000AF034634
:101A5000FB71FB7903F01F02074997F907305B0917
:101A6000012000FA02F241F8232000BF0C37BD46E6
:101A70005DF8047B704700BF00E100E080B483B0F4
:101A800000AF03463960FB7197F90730002B0BDA82
:101A90003B68DAB20C49FB7903F00F03043B1201F7
:101AA000D2B20B441A7609E03B68DAB2074997F9DB
:101AB00007301201D2B20B4483F8002300BF0C3769
:101AC000BD465DF8047B704700ED00E000E100E0FA
:101AD00080B489B000AFF860B9607A60FB6803F049
:101AE0000703FB61FB69C3F10703042B28BF042331
:101AF000BB61FB690433062B02D9FB69033B00E0A1
:101B000000237B614FF0FF32BB6902FA03F3DA4333
:101B1000BB681A407B699A404FF0FF317B6901FA3C
:101B200003F3D9437B680B40134318462437BD4663
:101B30005DF8047B704780B582B000AF786078684C
:101B4000FFF750FF00BF0837BD4680BD80B586B0A7
:101B500000AF0346B9607A60FB7300237B61FFF737
:101B600065FF78617A68B9687869FFF7B1FF024666
:101B700097F90F3011461846FFF780FF00BF18375E
:101B8000BD4680BD80B582B000AF0346FB7197F9BA
:101B900007301846FFF758FF00BF0837BD4680BD25
:101BA00080B487B000AF7860396000237B61002388
:101BB000FB6000233B614EE13B681A6801217B69B1
:101BC00001FA03F31340FB60FB68002B00F0408137
:101BD0003B685B68022B03D03B685B68122B23D108
:101BE0007B69DA087B68083253F822303B617B69F5
:101BF00003F007039B000F2202FA03F3DB433A6969
:101C000013403B613B681A697B6903F007039B0043
:101C100002FA03F33A6913433B617B69DA087B6894
:101C20000832396943F822107B681B683B617B6985
:101C30005B00032202FA03F3DB433A6913403B6182
:101C40003B685B6803F003027B695B0002FA03F305
:101C50003A6913433B617B683A691A603B685B6889
:101C6000012B0BD03B685B68022B07D03B685B689D
:101C7000112B03D03B685B68122B30D17B689B68CB
:101C80003B617B695B00032202FA03F3DB433A69A1
:101C900013403B613B68DA687B695B0002FA03F33F
:101CA0003A6913433B617B683A699A607B685B6879
:101CB0003B6101227B6902FA03F3DB433A6913407B
:101CC0003B613B685B681B0903F001027B6902FA18
:101CD00003F33A6913433B617B683A695A607B6856
:101CE000DB683B617B695B00032202FA03F3DB43A1
:101CF0003A6913403B613B689A687B695B0002FA72
:101D000003F33A6913433B617B683A69DA603B68E5
:101D10005B6803F08053002B00F09A80554B9B6961
:101D2000544A43F001039361524B9B6903F0010352
:101D3000BB60BB68504A7B699B08023352F8233072
:101D40003B617B6903F003039B000F2202FA03F35C
:101D5000DB433A6913403B617B68B3F1904F13D08A
:101D60007B68464A93420DD07B68454A934207D030
:101D70007B68444A934201D1032306E0052304E033
:101D8000022302E0012300E000237A6902F003024B
:101D9000920093403A6913433B6137497B699B0842
:101DA00002333A6941F82320374B1B683B61FB68DB
:101DB000DB433A6913403B613B685B6803F4803363
:101DC000002B03D03A69FB6813433B612E4A3B6901
:101DD00013602D4B5B683B61FB68DB433A69134042
:101DE0003B613B685B6803F40033002B03D03A6926
:101DF000FB6813433B61244A3B695360224B9B6859
:101E00003B61FB68DB433A6913403B613B685B68BD
:101E100003F48013002B03D03A69FB6813433B6142
:101E2000194A3B699360184BDB683B61FB68DB43F5
:101E30003A6913403B613B685B6803F40013002B75
:101E400003D03A69FB6813433B610F4A3B69D36097
:101E50007B6901337B613B681A687B6922FA03F373
:101E6000002B7FF4A9AE00BF1C37BD465DF8047B94
:101E7000704700BF0010024000000140000400480D
:101E800000080048000C00480004014080B483B002
:101E900000AF78600B467B8013467B707B78002B0D
:101EA00003D07A887B689A6102E07A887B689A62BC
:101EB00000BF0C37BD465DF8047B704780B483B02B
:101EC00000AF78600B467B807B685A697B885A40FC
:101ED0007B685A6100BF0C37BD465DF8047B7047D4
:101EE00080B5ADF5007D00AF3B1D18603B1D1B6844
:101EF000002B02D1012300F0DABE3B1D1B681B68DA
:101F000003F00103002B00F06E81B54B5B6803F01A
:101F10000C03042B0CD0B24B5B6803F00C03082BB2
:101F20005AD1AF4B5B6803F48033B3F5803F53D194
:101F30004FF40033C7F8F431D7F8F43193FAA3F330
:101F4000C7F8F031D7F8F031B3FA83F3DBB25B09AD
:101F5000DBB243F00103DBB2012B02D1A04B1B68C3
:101F600015E04FF40033C7F8EC31D7F8EC3193FAB1
:101F7000A3F3C7F8E8314FF40033C7F8E431D7F8DA
:101F8000E43193FAA3F3C7F8E031954B5B6A4FF461
:101F90000032C7F8DC21D7F8DC2192FAA2F2C7F8A8
:101FA000D821D7F8D821B2FA82F252B242F02002F8
:101FB00052B2D2B202F01F02012101FA02F2134022
:101FC000002B00F00F813B1D1B685B68002B40F06D
:101FD0000981012300F06BBE3B1D1B685B68B3F5F4
:101FE000803F06D17E4B1B687D4A43F480331360EB
:101FF00030E03B1D1B685B68002B0CD1784B1B68E5
:10200000774A23F480331360754B1B68744A23F4BA
:10201000802313601EE03B1D1B685B68B3F5A02F97
:102020000CD16F4B1B686E4A43F4802313606C4BDA
:102030001B686B4A43F4803313600BE0684B1B68EA
:10204000674A23F480331360654B1B68644A23F4AA
:1020500080231360624BDB6A23F00F023B1D1B6879
:102060009B685F491343CB623B1D1B685B68002B79
:102070005AD0FFF7ABFCC7F8F8010AE0FFF7A6FC5F
:102080000246D7F8F831D31A642B02D9032300F0A3
:102090000EBE4FF40033C7F8D431D7F8D43193FAD9
:1020A000A3F3C7F8D031D7F8D031B3FA83F3DBB25A
:1020B0005B09DBB243F00103DBB2012B02D1484BD9
:1020C0001B6815E04FF40033C7F8CC31D7F8CC319A
:1020D00093FAA3F3C7F8C8314FF40033C7F8C431FB
:1020E000D7F8C43193FAA3F3C7F8C0313C4B5B6A0D
:1020F0004FF40032C7F8BC21D7F8BC2192FAA2F203
:10210000C7F8B821D7F8B821B2FA82F252B242F039
:10211000200252B2D2B202F01F02012101FA02F2F1
:102120001340002BAAD05EE0FFF750FCC7F8F8017F
:102130000AE0FFF74BFC0246D7F8F831D31A642BBC
:1021400002D9032300F0B3BD4FF40033C7F8B43114
:10215000D7F8B43193FAA3F3C7F8B031D7F8B03158
:10216000B3FA83F3DBB25B09DBB243F00103DBB20A
:10217000012B02D11A4B1B6815E04FF40033C7F84E
:10218000AC31D7F8AC3193FAA3F3C7F8A8314FF4C8
:102190000033C7F8A431D7F8A43193FAA3F3C7F8F2
:1021A000A0310F4B5B6A4FF40032C7F89C21D7F87F
:1021B0009C2192FAA2F2C7F89821D7F89821B2FA96
:1021C00082F252B242F0200252B2D2B202F01F02A8
:1021D000012101FA02F21340002BAAD103E000BF53
:1021E0000010024000BF3B1D1B681B6803F0020388
:1021F000002B00F07081D04B5B6803F00C03002BC8
:102200000BD0CD4B5B6803F00C03082B6DD1CA4B90
:102210005B6803F48033002B67D10223C7F8943145
:10222000D7F8943193FAA3F3C7F89031D7F89031E7
:10223000B3FA83F3DBB25B09DBB243F00103DBB239
:10224000012B02D1BC4B1B6813E00223C7F88C3171
:10225000D7F88C3193FAA3F3C7F888310223C7F873
:102260008431D7F8843193FAA3F3C7F88031B24BA5
:102270005B6A0222C7F87C21D7F87C2192FAA2F28D
:10228000C7F87821D7F87821B2FA82F252B242F038
:10229000200252B2D2B202F01F02012101FA02F270
:1022A0001340002B07D03B1D1B681B69012B02D07C
:1022B000012300F0FCBCA04B1B6823F0F8023B1D7F
:1022C0001B685969F823C7F87431D7F8743193FA49
:1022D000A3F3C7F87031D7F87031B3FA83F301FA7A
:1022E00003F3954913430B60F5E03B1D1B681B6925
:1022F000002B00F085800123C7F86C31D7F86C31D2
:1023000093FAA3F3C7F86831D7F86831B3FA83F3C7
:1023100003F1845303F584139B001A4601231360D1
:10232000FFF754FBC7F8F8010AE0FFF74FFB02463E
:10233000D7F8F831D31A022B02D9032300F0B7BC27
:102340000223C7F86431D7F8643193FAA3F3C7F8CE
:102350006031D7F86031B3FA83F3DBB25B09DBB2EB
:1023600043F00103DBB2012B02D1734B1B6813E076
:102370000223C7F85C31D7F85C3193FAA3F3C7F8AE
:1023800058310223C7F85431D7F8543193FAA3F3E4
:10239000C7F85031684B5B6A0222C7F84C21D7F866
:1023A0004C2192FAA2F2C7F84821D7F84821B2FA94
:1023B00082F252B242F0200252B2D2B202F01F02B6
:1023C000012101FA02F21340002BAED05A4B1B68D8
:1023D00023F0F8023B1D1B685969F823C7F8443104
:1023E000D7F8443193FAA3F3C7F84031D7F8403116
:1023F000B3FA83F301FA03F34F4913430B606AE026
:102400000123C7F83C31D7F83C3193FAA3F3C7F85E
:102410003831D7F83831B3FA83F303F1845303F535
:1024200084139B001A4600231360FFF7CFFAC7F806
:10243000F8010AE0FFF7CAFA0246D7F8F831D31AD2
:10244000022B02D9032300F032BC0223C7F8343137
:10245000D7F8343193FAA3F3C7F83031D7F83031D5
:10246000B3FA83F3DBB25B09DBB243F00103DBB207
:10247000012B02D1304B1B6813E00223C7F82C312B
:10248000D7F82C3193FAA3F3C7F828310223C7F801
:102490002431D7F8243193FAA3F3C7F82031264B1F
:1024A0005B6A0222C7F81C21D7F81C2192FAA2F21B
:1024B000C7F81821D7F81821B2FA82F252B242F0C6
:1024C000200252B2D2B202F01F02012101FA02F23E
:1024D0001340002BAED13B1D1B681B6803F00803A3
:1024E000002B00F0D8803B1D1B689B69002B67D038
:1024F0000123C7F81431D7F8143193FAA3F3C7F8BE
:102500001031D7F81031B3FA83F31A460B4B13444A
:102510009B001A4601231360FFF758FAC7F8F80129
:102520000EE0FFF753FA0246D7F8F831D31A022B20
:1025300006D90323BBE300BF0010024020819010A6
:102540000223C7F80C31D7F80C3193FAA3F3C7F87C
:1025500008310223C7F80431D7F8043193FAA3F203
:1025600007F580731A6007F1FC0302221A6007F175
:10257000FC031B6893FAA3F207F1F8031A60A54B5A
:102580005A6A07F1F4030221196007F1F4031B688A
:1025900093FAA3F107F1F003196007F1F0031B6848
:1025A000B3FA83F35BB243F060035BB2DBB203F0D8
:1025B0001F03012101FA03F31340002BB1D06AE09D
:1025C00007F1EC0301221A6007F1EC031B6893FA90
:1025D000A3F207F1E8031A6007F1E8031B68B3FAF6
:1025E00083F31A468C4B13449B001A460023136056
:1025F000FFF7ECF9C7F8F80109E0FFF7E7F9024641
:10260000D7F8F831D31A022B01D903234FE307F18E
:10261000E40302221A6007F1E4031B6893FAA3F2B1
:1026200007F1E0031A6007F1DC0302221A6007F1E8
:10263000DC031B6893FAA3F207F1D8031A6007F1D1
:10264000D40302221A6007F1D4031B6893FAA3F2A1
:1026500007F1D0031A606F4B5A6A07F1CC030221CD
:10266000196007F1CC031B6893FAA3F107F1C803C3
:10267000196007F1C8031B68B3FA83F35BB243F038
:1026800060035BB2DBB203F01F03012101FA03F325
:102690001340002BB1D13B1D1B681B6803F00403E2
:1026A000002B00F05981002387F8FF31594BDB697B
:1026B00003F08053002B12D1564BDB69554A43F08F
:1026C0008053D361534BDB6903F0805207F10C0355
:1026D0001A6007F10C031B68012387F8FF314F4B89
:1026E0001B6803F48073002B1AD14C4B1B684B4AB8
:1026F00043F480731360FFF769F9C7F8F80109E044
:10270000FFF764F90246D7F8F831D31A642B01D9E0
:102710000323CCE2414B1B6803F48073002BEFD002
:102720003B1D1B68DB68012B06D13A4B1B6A394AFB
:1027300043F0010313622FE03B1D1B68DB68002B95
:102740000CD1344B1B6A334A23F001031362314B23
:102750001B6A304A23F0040313621DE03B1D1B6813
:10276000DB68052B0CD12B4B1B6A2A4A43F0040370
:102770001362284B1B6A274A43F0010313620BE0E4
:10278000244B1B6A234A23F001031362214B1B6A6B
:10279000204A23F0040313623B1D1B68DB68002BF7
:1027A0006BD0FFF713F9C7F8F8010BE0FFF70EF94C
:1027B0000246D7F8F831D31A41F28832934201D950
:1027C000032374E207F1C40302221A6007F1C40371
:1027D0001B6893FAA3F207F1C0031A6007F1BC0368
:1027E00002221A6007F1BC031B6893FAA3F207F1F7
:1027F000B8031A6007F1B8031B68B3FA83F3DBB2BE
:102800005B09DBB243F00203DBB2022B08D1014BC0
:102810001B6A13E0001002402081901000700040FD
:1028200007F1B40302221A6007F1B4031B6893FA9C
:10283000A3F207F1B0031A60BB4B5B6A07F1AC026D
:102840000221116007F1AC02126892FAA2F107F1BD
:10285000A802116007F1A8021268B2FA82F252B21D
:1028600042F0400252B2D2B202F01F02012101FA3C
:1028700002F21340002B99D064E0FFF7A7F8C7F8E5
:10288000F8010BE0FFF7A2F80246D7F8F831D31AA7
:1028900041F28832934201D9032308E207F1A403ED
:1028A00002221A6007F1A4031B6893FAA3F207F14E
:1028B000A0031A6007F19C0302221A6007F19C032F
:1028C0001B6893FAA3F207F198031A6007F19803C3
:1028D0001B68B3FA83F3DBB25B09DBB243F002039C
:1028E000DBB2022B02D1904B1B6A0DE007F194037F
:1028F00002221A6007F194031B6893FAA3F207F10E
:1029000090031A60884B5B6A07F18C020221116008
:1029100007F18C02126892FAA2F107F188021160A5
:1029200007F188021268B2FA82F252B242F0400213
:1029300052B2D2B202F01F02012101FA02F2134098
:10294000002B9FD197F8FF31012B05D1764BDB6926
:10295000754A23F08053D3613B1D1B68DB69002B54
:1029600000F0A481704B5B6803F00C03082B00F0AF
:102970009B813B1D1B68DB69022B40F0138107F133
:1029800084034FF080721A6007F184031B6893FA86
:10299000A3F207F180031A6007F180031B68B3FA02
:1029A00083F303F1845303F584139B001A46002339
:1029B0001360FFF70BF8C7F8F80109E0FFF706F816
:1029C0000246D7F8F831D31A022B01D903236EE15E
:1029D00007F17C034FF000721A6007F17C031B685B
:1029E00093FAA3F207F178031A6007F178031B68E2
:1029F000B3FA83F3DBB25B09DBB243F00103DBB272
:102A0000012B02D1484B1B681BE007F174034FF008
:102A100000721A6007F174031B6893FAA3F207F1BE
:102A200070031A6007F16C034FF000721A6007F12F
:102A30006C031B6893FAA3F207F168031A603A4B20
:102A40005B6A07F164024FF00071116007F16402E4
:102A5000126892FAA2F107F16002116007F16002B8
:102A60001268B2FA82F252B242F0200252B2D2B2EC
:102A700002F01F02012101FA02F21340002B9DD146
:102A8000294B5B6823F474123B1D1B68596A3B1D7C
:102A90001B681B6A0B43244913434B6007F15C031B
:102AA0004FF080721A6007F15C031B6893FAA3F27F
:102AB00007F158031A6007F158031B68B3FA83F350
:102AC00003F1845303F584139B001A46012313601A
:102AD000FEF77CFFC7F8F80109E0FEF777FF024632
:102AE000D7F8F831D31A022B01D90323DFE007F11D
:102AF00054034FF000721A6007F154031B6893FAF5
:102B0000A3F207F150031A6007F150031B68B3FAF0
:102B100083F3DBB25B09DBB243F00103DBB2012BD1
:102B200004D1014B1B681DE00010024007F14C036B
:102B30004FF000721A6007F14C031B6893FAA3F27E
:102B400007F148031A6007F144034FF000721A605E
:102B500007F144031B6893FAA3F207F140031A60DC
:102B6000554B5B6A07F13C024FF00071116007F1B1
:102B70003C02126892FAA2F107F13802116007F1E3
:102B800038021268B2FA82F252B242F0200252B215
:102B9000D2B202F01F02012101FA02F21340002B0F
:102BA0009BD083E007F134034FF080721A6007F185
:102BB00034031B6893FAA3F207F130031A6007F19C
:102BC00030031B68B3FA83F303F1845303F58413D2
:102BD0009B001A4600231360FEF7F8FEC7F8F801C1
:102BE00009E0FEF7F3FE0246D7F8F831D31A022BBC
:102BF00001D903235BE007F12C034FF000721A6048
:102C000007F12C031B6893FAA3F207F128031A605B
:102C100007F128031B68B3FA83F3DBB25B09DBB26D
:102C200043F00103DBB2012B02D1234B1B681BE0F5
:102C300007F124034FF000721A6007F124031B68A8
:102C400093FAA3F207F120031A6007F11C034FF077
:102C500000721A6007F11C031B6893FAA3F207F1D4
:102C600018031A60144B5B6A07F114024FF00071ED
:102C7000116007F11402126892FAA2F107F1100232
:102C8000116007F110021268B2FA82F252B242F0F9
:102C9000200252B2D2B202F01F02012101FA02F266
:102CA0001340002B9DD101E0012300E000231846D2
:102CB00007F50077BD4680BD0010024080B59EB08C
:102CC00000AF7860396000237B677B68002B01D1FF
:102CD000012364E1924B1B6803F007033A689A42B0
:102CE00010D98F4B1B6823F007028D493B681343B3
:102CF0000B608B4B1B6803F007033A689A4201D0C4
:102D000001234CE17B681B6803F00203002B08D011
:102D1000844B5B6823F0F0027B689B688149134316
:102D20004B607B681B6803F00103002B00F0DF8021
:102D30007B685B68012B3DD14FF400333B673B6FF1
:102D400093FAA3F3FB66FB6EB3FA83F3DBB25B0982
:102D5000DBB243F00103DBB2012B02D1714B1B68E4
:102D60000FE04FF40033BB66BB6E93FAA3F37B66B0
:102D70004FF400333B663B6E93FAA3F3FB65694B5C
:102D80005B6A4FF40032BA65BA6D92FAA2F27A65C4
:102D90007A6DB2FA82F252B242F0200252B2D2B24C
:102DA00002F01F02012101FA02F21340002B7DD133
:102DB0000123F4E07B685B68022B3DD14FF0007388
:102DC0003B653B6D93FAA3F3FB64FB6CB3FA83F3AF
:102DD000DBB25B09DBB243F00103DBB2012B02D1B2
:102DE000504B1B680FE04FF00073BB64BB6C93FA51
:102DF000A3F37B644FF000733B643B6C93FAA3F343
:102E0000FB63484B5B6A4FF00072BA63BA6B92FA8D
:102E1000A2F27A637A6BB2FA82F252B242F02002E4
:102E200052B2D2B202F01F02012101FA02F21340A3
:102E3000002B3BD10123B2E002233B633B6B93FAAF
:102E4000A3F3FB62FB6AB3FA83F3DBB25B09DBB289
:102E500043F00103DBB2012B02D1324B1B680DE0C2
:102E60000223BB62BB6A93FAA3F37B6202233B6239
:102E70003B6A93FAA3F3FB612A4B5B6A0222BA61B5
:102E8000BA6992FAA2F27A617A69B2FA82F252B21D
:102E900042F0200252B2D2B202F01F02012101FA26
:102EA00002F21340002B01D1012378E01D4B5B6837
:102EB00023F003027B685B681A4913434B60FEF7FB
:102EC00085FD78670AE0FEF781FD02467B6FD31A25
:102ED00041F28832934201D9032360E0114B5B68D1
:102EE00003F00C027B685B689B009A42EBD10C4BB1
:102EF0001B6803F007033A689A4215D2084B1B6817
:102F000023F0070206493B6813430B60044B1B6820
:102F100003F007033A689A4206D001233FE000BF5E
:102F200000200240001002407B681B6803F004038D
:102F3000002B08D01C4B5B6823F4E0627B68DB68E5
:102F4000194913434B607B681B6803F00803002B8F
:102F500009D0154B5B6823F460527B681B69DB006A
:102F6000114913434B6000F025F801460E4B5B6896
:102F700003F0F002F0233B613B6993FAA3F3FB609B
:102F8000FB68B3FA83F322FA03F3084AD35C21FA0D
:102F900003F3074A13600020FDF730FB00231846B7
:102FA0007837BD4680BD00BF00100240DC3E0008FF
:102FB0001000002080B48BB000AF0023FB61002321
:102FC000BB6100237B6200237B6100233B62294BB2
:102FD0005B68FB61FB6903F00C03042B02D0082B38
:102FE00003D03CE0244B3B623CE0FB6903F47012ED
:102FF0004FF47013BB60BB6893FAA3F37B607B68EC
:10300000B3FA83F322FA03F31C4AD35C7B61194BB6
:10301000DB6A03F00F020F233B613B6993FAA3F3D2
:10302000FB60FB68B3FA83F322FA03F3144AD35C20
:10303000BB61FB6903F48033002B08D00E4ABB69E7
:10304000B2FBF3F27B6902FB03F37B6204E07B6972
:103050000C4A02FB03F37B627B6A3B6202E0064B95
:103060003B6200BF3B6A18462C37BD465DF8047BC7
:10307000704700BF0010024000127A00F43E0008C2
:10308000043F000800093D0080B400AF034B1B68FB
:103090001846BD465DF8047B704700BF1000002055
:1030A00080B582B000AFFFF7EFFF01460B4B5B68C6
:1030B00003F4E0624FF4E0637B607B6893FAA3F370
:1030C0003B603B68B3FA83F322FA03F3044AD35C10
:1030D00021FA03F318460837BD4680BD00100240B0
:1030E000EC3E000880B582B000AFFFF7CDFF01468F
:1030F0000B4B5B6803F460524FF460537B607B685A
:1031000093FAA3F33B603B68B3FA83F322FA03F329
:10311000044AD35C21FA03F318460837BD4680BD44
:1031200000100240EC3E000880B483B000AF78602D
:1031300039607B680F221A60124B5B6803F0030250
:103140007B685A600F4B5B6803F0F0027B689A6003
:103150000C4B5B6803F4E0627B68DA60094B5B68E8
:10316000DB0803F4E0627B681A61074B1B6803F01D
:1031700007023B681A6000BF0C37BD465DF8047B50
:10318000704700BF001002400020024080B582B0AE
:1031900000AF78607B68002B01D101231DE07B68C4
:1031A00093F83D30DBB2002B06D17B68002283F818
:1031B0003C20786800F015F87B68022283F83D20F7
:1031C0007B681A687B6804331946104600F076F96C
:1031D0007B68012283F83D20002318460837BD464E
:1031E00080BD80B483B000AF786000BF0C37BD46AF
:1031F0005DF8047B704780B483B000AF78607B6873
:103200001B68DA687B681B6842F00102DA607B6841
:103210001B681A687B681B6842F001021A60002371
:1032200018460C37BD465DF8047B704780B582B008
:1032300000AF78607B681B681B6903F00203022BF8
:1032400022D17B681B68DB6803F00203022B1BD1D1
:103250007B681B686FF002021A617B6801221A7793
:103260007B681B689B6903F00303002B03D078681D
:1032700000F005F905E0786800F0F7F8786800F0EC
:1032800008F97B6800221A777B681B681B6903F0CA
:103290000403042B22D17B681B68DB6803F0040362
:1032A000042B1BD17B681B686FF004021A617B68DA
:1032B00002221A777B681B689B6903F44073002B1A
:1032C00003D0786800F0DBF805E0786800F0CDF80E
:1032D000786800F0DEF87B6800221A777B681B684C
:1032E0001B6903F00803082B22D17B681B68DB688D
:1032F00003F00803082B1BD17B681B686FF00802E2
:103300001A617B6804221A777B681B68DB6903F00B
:103310000303002B03D0786800F0B1F805E078686B
:1033200000F0A3F8786800F0B4F87B6800221A7700
:103330007B681B681B6903F01003102B22D17B688C
:103340001B68DB6803F01003102B1BD17B681B6824
:103350006FF010021A617B6808221A777B681B687D
:10336000DB6903F44073002B03D0786800F087F822
:1033700005E0786800F079F8786800F08AF87B68F2
:1033800000221A777B681B681B6903F00103012B7D
:103390000ED17B681B68DB6803F00103012B07D1AA
:1033A0007B681B686FF001021A617868FDF772F89C
:1033B0007B681B681B6903F08003802B0ED17B6840
:1033C0001B68DB6803F08003802B07D17B681B68D8
:1033D0006FF080021A61786800F0F4F87B681B686F
:1033E0001B6903F48073B3F5807F0ED17B681B6883
:1033F000DB6803F08003802B07D17B681B686FF4C8
:1034000080721A61786800F0E7F87B681B681B69B6
:1034100003F04003402B0ED17B681B68DB6803F090
:103420004003402B07D17B681B686FF040021A6194
:10343000786800F038F87B681B681B6903F020038C
:10344000202B0ED17B681B68DB6803F02003202B48
:1034500007D17B681B686FF020021A61786800F062
:10346000A7F800BF0837BD4680BD80B483B000AF69
:10347000786000BF0C37BD465DF8047B704780B4B0
:1034800083B000AF786000BF0C37BD465DF8047BA9
:10349000704780B483B000AF786000BF0C37BD4682
:1034A0005DF8047B704780B483B000AF786000BFE4
:1034B0000C37BD465DF8047B7047000080B485B0D2
:1034C00000AF786039600023FB607B681B68FB609D
:1034D0007B68324A934207D07B68B3F1804F03D0B8
:1034E0007B682F4A934208D1FB6823F07003FB608E
:1034F0003B685B68FA681343FB607B68274A93422A
:1035000013D07B68B3F1804F0FD07B68244A93427D
:103510000BD07B68234A934207D07B68224A9342B0
:1035200003D07B68214A934208D1FB6823F440739F
:10353000FB603B68DB68FA681343FB60FB6823F0C1
:1035400080023B685B691343FB607B68FA681A6022
:103550003B689A687B68DA623B681A687B689A62A3
:103560007B680E4A93420BD07B680E4A934207D089
:103570007B680D4A934203D07B680C4A934203D187
:103580003B681A697B681A637B6801225A6100BF35
:103590001437BD465DF8047B704700BF002C014026
:1035A0000004004000400140004401400048014048
:1035B00080B483B000AF786000BF0C37BD465DF8C3
:1035C000047B704780B483B000AF786000BF0C37D5
:1035D000BD465DF8047B704780B483B000AF78606F
:1035E00000BF0C37BD465DF8047B704780B582B0E4
:1035F00000AF78607B68002B01D1012343E07B683A
:1036000093F86930DBB2002B06D17B68002283F887
:1036100068207868FCF77CFF7B68242283F86920A7
:103620007B681B681A687B681B6822F001021A60BD
:10363000786800F0B9F80346012B01D1012322E09C
:103640007B685B6A002B02D0786800F013FA7B6815
:103650001B685A687B681B6822F490425A607B683A
:103660001B689A687B681B6822F02A029A607B6854
:103670001B681A687B681B6842F001021A60786850
:1036800000F09AFA034618460837BD4680BD80B55B
:1036900088B002AFF860B9603B601346FB8000233E
:1036A0007B61FB6893F86930DBB2202B77D1BB6874
:1036B000002B02D0FB88002B01D1012370E0FB68B6
:1036C00093F86830012B01D1022369E0FB680122E5
:1036D00083F86820FB680022DA66FB68212283F801
:1036E0006920FEF773F97861FB68FA88A3F8502027
:1036F000FB68FA88A3F8522034E0FB68B3F8523034
:103700009BB2013B9AB2FB68A3F852203B6800933E
:103710007B6900228021F86800F097FA0346002BAD
:1037200001D003233CE0FB689B68B3F5805F11D1B7
:10373000FB681B69002B0DD1BB683B613B691A8894
:10374000FB681B68C2F3080292B21A85BB68023399
:10375000BB6007E0BB685A1CBA601A78FB681B683C
:1037600092B21A85FB68B3F852309BB2002BC4D1D9
:103770003B6800937B6900224021F86800F065FAFD
:103780000346002B01D003230AE0FB68202283F8C4
:103790006920FB68002283F86820002300E00223F0
:1037A00018461837BD4680BD80B586B000AF78603A
:1037B0000023FB601023FB7500237B810023BB8269
:1037C0000023FB747B689A687B681B691A437B68DB
:1037D0005B691A437B68DB691343FB607B681B688A
:1037E0001A689F4B13407A681268F9680B4313609C
:1037F0007B681B685B6823F440517B68DA687B68F0
:103800001B680A435A607B689A697B681B6A13438A
:10381000FB607B681B689B6823F430617B681B68D6
:10382000FA680A439A607B681B688E4A934221D1EA
:103830008D4B1B6B03F00303032B17D801A252F827
:1038400023F000BF553800086138000867380008C9
:103850005B3800080023FB751EE00223FB751BE0AC
:103860000423FB7518E00823FB7515E01023FB7596
:1038700000BF11E07B681B687C4A934202D10023A1
:10388000FB7509E07B681B68794A934202D10023EB
:10389000FB7501E01023FB757B68DB69B3F5004F16
:1038A0006FD1FB7D082B57D801A252F823F000BF3F
:1038B000D5380008F13800080D39000859390008DA
:1038C00027390008593900085939000859390008C2
:1038D00043390008FFF7E4FB03465A007B685B6846
:1038E0005B081A447B685B68B2FBF3F3BB8236E08B
:1038F000FFF7F8FB03465A007B685B685B081A44D5
:103900007B685B68B2FBF3F3BB8228E07B685B6893
:103910005B0803F5740303F510537A685268B3FB30
:10392000F2F3BB821BE0FFF745FB03465A007B68BE
:103930005B685B081A447B685B68B2FBF3F3BB828D
:103940000DE07B685B685B0803F580327B685B6831
:10395000B2FBF3F3BB8202E00123FB7400BFBB8A1E
:1039600023F00F037B81BB8A5B109BB203F007033C
:103970009AB27B8913437B817B681B687A89DA6002
:1039800069E0FB7D082B63D801A252F823F000BF49
:10399000B5390008D5390008F5390008513A000852
:1039A000153A0008513A0008513A0008513A000807
:1039B000353A0008FFF774FB02467B685B685B08DA
:1039C0001A447B685B68B2FBF3F39AB27B681B68AE
:1039D000DA6040E0FFF786FB02467B685B685B08C5
:1039E0001A447B685B68B2FBF3F39AB27B681B688E
:1039F000DA6030E07B685B685B0803F5F40303F58D
:103A000090537A685268B3FBF2F39AB27B681B68F2
:103A1000DA6020E0FFF7CEFA02467B685B685B085D
:103A20001A447B685B68B2FBF3F39AB27B681B684D
:103A3000DA6010E07B685B685B0803F500427B6836
:103A40005B68B2FBF3F39AB27B681B68DA6002E052
:103A50000123FB7400BFFB7C18461837BD4680BDB0
:103A6000F369FFEF003801400010024000440040BD
:103A70000048004080B483B000AF78607B685B6A28
:103A800003F00103002B0AD07B681B685B6823F4FA
:103A900000317B689A6A7B681B680A435A607B68BE
:103AA0005B6A03F00203002B0AD07B681B685B682B
:103AB00023F480317B68DA6A7B681B680A435A60AA
:103AC0007B685B6A03F00403002B0AD07B681B68E9
:103AD0005B6823F480217B681A6B7B681B680A4350
:103AE0005A607B685B6A03F00803002B0AD07B688E
:103AF0001B685B6823F400417B685A6B7B681B681A
:103B00000A435A607B685B6A03F01003002B0AD0FB
:103B10007B681B689B6823F480517B689A6B7B6889
:103B20001B680A439A607B685B6A03F02003002BE2
:103B30000AD07B681B689B6823F400517B68DA6BB2
:103B40007B681B680A439A607B685B6A03F04003EA
:103B5000002B1AD07B681B685B6823F480117B689C
:103B60001A6C7B681B680A435A607B681B6CB3F550
:103B7000801F0AD17B681B685B6823F4C0017B68E7
:103B80005A6C7B681B680A435A607B685B6A03F067
:103B90008003002B0AD07B681B685B6823F400213C
:103BA0007B689A6C7B681B680A435A6000BF0C37BD
:103BB000BD465DF8047B704780B586B002AF786083
:103BC0000023FB607B680022DA66FDF7FFFEF860E9
:103BD0007B681B681B6803F00803082B0ED16FF08D
:103BE0007E430093FB6800224FF40011786800F0D8
:103BF0002CF80346002B01D0032322E07B681B68CE
:103C00001B6803F00403042B0ED16FF07E43009376
:103C1000FB6800224FF48001786800F016F8034634
:103C2000002B01D003230CE07B68202283F869205D
:103C30007B68202283F86A207B68002283F8682052
:103C4000002318461037BD4680BD80B584B000AF54
:103C5000F860B9603B601346FB712CE0BB69B3F1BF
:103C6000FF3F28D0BB69002B07D0FDF7AFFE02460F
:103C70003B68D31ABA699A421DD2FB681B681A685E
:103C8000FB681B6822F4D0721A60FB681B689A6894
:103C9000FB681B6822F001029A60FB68202283F80F
:103CA0006920FB68202283F86A20FB68002283F8E1
:103CB000682003230FE0FB681B68DA69BB681340C8
:103CC000BA689A420CBF01230023DBB21A46FB7983
:103CD0009A42C3D0002318461037BD4680BD00006D
:103CE00070B50D4E0D4D761BB61006D00024013474
:103CF00055F8043B9847A642F9D1094E094D761B69
:103D000000F0D4F8B61006D00024013455F8043B76
:103D10009847A642F9D170BD183F0008183F000827
:103D2000203F0008183F0008F0B4860746D0541E14
:103D3000002A3CD0CAB2034602E014F1FF3436D365
:103D400003F8012B9D07F8D1032C29D9CDB245EA00
:103D500005250F2C45EA054533D9A4F1100636098F
:103D600003F1200707EB061703F1100242E904559F
:103D700042E902551032BA42F8D1721C14F00C0F0D
:103D800003EB021204F00F0613D0331F23F00303DA
:103D90000433134442F8045B9342FBD106F003045E
:103DA0002CB1C9B21C4403F8011B9C42FBD1F0BCEE
:103DB000704734461346002CF3D1F8E71446034607
:103DC000C2E71A462646E0E7024B13B1024800F06C
:103DD00005B8704700000000E93D000800230146D7
:103DE0001A46184600F01EB838B50A4C0A4D641B36
:103DF000A4100AD004F18043013B05EB8305013C8C
:103E000055F804399847002CF9D1BDE8384000F046
:103E100053B800BF243F0008203F0008704700BF90
:103E2000704700BF2DE9F0411E4C054620689046C2
:103E30001F460E46FFF7F2FF1B4B1A68D2F84831B7
:103E400033B35A6820681F2A27DC4DB9911C013210
:103E50005A6043F82160FFF7E3FF0020BDE8F081DE
:103E600003EB82010124C1F8888004FA02FED3F832
:103E70008841022D44EA0E0CC3F888C1C1F80871CC
:103E8000E4D1D3F88C114EEA0104C3F88C41DDE78C
:103E900002F5A673C2F84831D3E7FFF7C1FF4FF030
:103EA000FF30DBE748040020143F0008F8B500BFEE
:103EB000F8BC08BC9E467047F8B500BFF8BC08BC0B
:043EC0009E46704763
:103EC4005461736B203100005461736B2032000025
:103ED40049444C45000000000000000000000000C0
:103EE400010203040607080900000000010203049C
:103EF40002030405060708090A0B0C0D0E0F101027
:103F04000102030405060708090A0B0C0D0E0F1025
:043F14002000002069
:083F1800C93D0008F901000891
:043F2000D1010008C3
:103F240048656C6C6F20576F726C64210000000050
:103F340000127A00AAAAAAAA010000000000000048
:103F4400000000000C03002074030020DC030020A8
:103F5400000000000000000000000000000000005D
:103F6400000000000000000000000000000000004D
:103F7400000000000000000000000000000000003D
:103F8400000000000000000000000000000000002D
:103F9400000000000000000000000000000000001D
:103FA400000000000000000000000000000000000D
:103FB40000000000000000000000000000000000FD
:103FC40000000000000000000000000000000000ED
:103FD40000000000000000000000000000000000DD
:103FE40000000000000000000100000000000000CC
:103FF4000E33CDAB34126DE6ECDE05000B00000091
:1040040000000000000000000000000000000000AC
:10401400000000000000000000000000000000009C
:10402400000000000000000000000000000000008C
:10403400000000000000000000000000000000007C
:0C436400000000000000000070120020AB
:040000050800021DD0
:00000001FF
